:020000040800F2
:1000000000500020012D00082D1600082F160008B2
:1000100031160008331600083516000800000000ED
:10002000000000000000000000000000371600087B
:1000300039160008000000003B1600083D160008B5
:10004000492D0008492D0008492D0008492D0008B8
:10005000492D0008492D0008492D0008492D0008A8
:10006000492D0008492D0008492D0008492D000898
:10007000492D0008492D0008492D0008492D000888
:10008000492D0008492D0008492D0008492D000878
:10009000492D0008492D0008492D0008492D000868
:1000A000492D0008492D0008492D0008492D000858
:1000B000492D0008492D0008492D0008492D000848
:1000C000492D0008492D0008492D0008492D000838
:1000D000492D0008492D0008492D0008492D000828
:1000E00045160008492D0008492D000800000000B1
:1000F0000000000000000000000000000000000000
:0C01000000000000000000005FF808F1A3
:1001100081F0004102E000BF83F0004330B54FEAB8
:1001200041044FEA430594EA050F08BF90EA020F25
:100130001FBF54EA000C55EA020C7FEA645C7FEAB8
:10014000655C00F0E2804FEA5454D4EB5555B8BFDB
:100150006D420CDD2C4480EA020281EA030382EA4C
:10016000000083EA010180EA020281EA0303362DDE
:1001700088BF30BD11F0004F4FEA01314FF4801CB1
:100180004CEA113102D0404261EB410113F0004FC3
:100190004FEA03334CEA133302D0524263EB43037A
:1001A00094EA050F00F0A780A4F10104D5F1200E18
:1001B0000DDB02FA0EFC22FA05F2801841F1000173
:1001C00003FA0EF2801843FA05F359410EE0A5F147
:1001D00020050EF1200E012A03FA0EFC28BF4CF078
:1001E000020C43FA05F3C01851EBE37101F000452E
:1001F00007D54FF0000EDCF1000C7EEB00006EEB3B
:100200000101B1F5801F1BD3B1F5001F0CD34908C4
:100210005FEA30004FEA3C0C04F101044FEA44521B
:1002200012F5800F80F09A80BCF1004F08BF5FEAA2
:10023000500C50F1000041EB045141EA050130BD82
:100240005FEA4C0C404141EB0101013C28BFB1F594
:10025000801FE9D291F0000F04BF01460020B1FADF
:1002600081F308BF2033A3F10B03B3F120020CDAB2
:100270000C3208DD02F1140CC2F10C0201FA0CF090
:1002800021FA02F10CE002F11402D8BFC2F1200CF5
:1002900001FA02F120FA0CFCDCBF41EA0C019040AB
:1002A000E41AA2BF01EB0451294330BD6FEA0404F4
:1002B0001F3C1CDA0C340EDC04F11404C4F12002DF
:1002C00020FA04F001FA02F340EA030021FA04F3F1
:1002D00045EA030130BDC4F10C04C4F1200220FA48
:1002E00002F001FA04F340EA0300294630BD21FA86
:1002F00004F0294630BD94F0000F83F4801306BF4C
:1003000081F480110134013D4EE77FEA645C18BF3F
:100310007FEA655C29D094EA050F08BF90EA020FD6
:1003200005D054EA000C04BF1946104630BD91EACE
:10033000030F1EBF0021002030BD5FEA545C05D1D1
:100340004000494128BF41F0004130BD14F5800410
:100350003CBF01F5801130BD01F0004545F0FE4184
:1003600041F470014FF0000030BD7FEA645C1ABFB9
:10037000194610467FEA655C1CBF0B46024650EAF0
:10038000013406BF52EA033591EA030F41F400211C
:1003900030BD00BF90F0000F04BF0021704730B5A2
:1003A0004FF4806404F132044FF000054FF0000177
:1003B00050E700BF90F0000F04BF0021704730B538
:1003C0004FF4806404F1320410F0004548BF40420D
:1003D0004FF000013EE700BF42004FEAE2014FEA62
:1003E00031014FEA02701FBF12F07F4393F07F4F3D
:1003F00081F06051704732F07F4208BF704793F040
:100400007F4F04BF41F40021704730B54FF4607452
:1004100001F0004521F000411CE700BF50EA010255
:1004200008BF704730B54FF000050AE050EA0102FE
:1004300008BF704730B511F0004502D5404261EB6E
:1004400041014FF4806404F132045FEA915C3FF4AF
:10045000D8AE4FF003025FEADC0C18BF03325FEA4C
:10046000DC0C18BF033202EBDC02C2F1200300FAFD
:1004700003FC20FA02F001FA03FE40EA0E0021FA22
:1004800002F11444BDE600BF70B54FF0FF0C4CF410
:10049000E06C1CEA11541DBF1CEA135594EA0C0FC2
:1004A00095EA0C0F00F0DEF82C4481EA030621EAFD
:1004B0004C5123EA4C5350EA013518BF52EA033538
:1004C00041F4801143F4801338D0A0FB02CE4FF0EA
:1004D0000005E1FB02E506F00042E0FB03E54FF01A
:1004E0000006E1FB03569CF0000F18BF4EF0010E12
:1004F000A4F1FF04B6F5007F64F5407404D25FEA0E
:100500004E0E6D4146EB060642EAC62141EA5551C0
:100510004FEAC52040EA5E504FEACE2EB4F1FD0C02
:1005200088BFBCF5E06F1ED8BEF1004F08BF5FEA80
:10053000500E50F1000041EB045170BD06F0004632
:1005400046EA010140EA020081EA0301B4EB5C04DF
:10055000C2BFD4EB0C0541EA045170BD41F48011D7
:100560004FF0000E013C00F3AB8014F1360FDEBFFC
:10057000002001F0004170BDC4F10004203C35DAD8
:100580000C341BDC04F11404C4F1200500FA05F35B
:1005900020FA04F001FA05F240EA020001F00042FC
:1005A00021F0004110EBD37021FA04F642EB060172
:1005B0005EEA430E08BF20EAD37070BDC4F10C049C
:1005C000C4F1200500FA04F320FA05F001FA04F260
:1005D00040EA020001F0004110EBD37041F100014C
:1005E0005EEA430E08BF20EAD37070BDC4F1200557
:1005F00000FA05F24EEA020E20FA04F301FA05F2BF
:1006000043EA020321FA04F001F0004121FA04F266
:1006100020EA020000EBD3705EEA430E08BF20EA36
:10062000D37070BD94F0000F0FD101F00046400070
:1006300041EB010111F4801F08BF013CF7D041EAF2
:10064000060195F0000F18BF704703F000465200F6
:1006500043EB030313F4801F08BF013DF7D043EAC7
:100660000603704794EA0C0F0CEA135518BF95EA7D
:100670000C0F0CD050EA410618BF52EA4306D1D104
:1006800081EA030101F000414FF0000070BD50EA23
:10069000410606BF1046194652EA430619D094EAAD
:1006A0000C0F02D150EA013613D195EA0C0F05D197
:1006B00052EA03361CBF104619460AD181EA0301EB
:1006C00001F0004141F0FE4141F470014FF00000A3
:1006D00070BD41F0FE4141F4780170BD70B54FF03E
:1006E000FF0C4CF4E06C1CEA11541DBF1CEA1355BE
:1006F00094EA0C0F95EA0C0F00F0A7F8A4EB0504A0
:1007000081EA030E52EA03354FEA013100F0888096
:100710004FEA03334FF0805545EA131343EA12635F
:100720004FEA022245EA111545EA10654FEA002614
:100730000EF000419D4208BF964244F1FD0404F5CD
:10074000407402D25B084FEA3202B61A65EB030529
:100750005B084FEA32024FF480104FF4002CB6EBE6
:10076000020E75EB030E22BFB61A754640EA0C0066
:100770005B084FEA3202B6EB020E75EB030E22BFA6
:10078000B61A754640EA5C005B084FEA3202B6EBE7
:10079000020E75EB030E22BFB61A754640EA9C00A6
:1007A0005B084FEA3202B6EB020E75EB030E22BF76
:1007B000B61A754640EADC0055EA060E18D04FEA34
:1007C000051545EA16754FEA06164FEAC30343EAD4
:1007D00052734FEAC2025FEA1C1CC0D111F4801FA1
:1007E0000BD141EA00014FF000004FF0004CB6E79A
:1007F00011F4801F04BF01430020B4F1FD0C88BF39
:10080000BCF5E06F3FF6AFAEB5EB030C04BFB6EB43
:10081000020C5FEA500C50F1000041EB045170BD36
:100820000EF0004E4EEA113114EB5C04C2BFD4EB63
:100830000C0541EA045170BD41F480114FF0000EE7
:10084000013C90E645EA060E8DE60CEA135594EA63
:100850000C0F08BF95EA0C0F3FF43BAF94EA0C0F66
:100860000AD150EA01347FF434AF95EA0C0F7FF4DB
:1008700025AF104619462CE795EA0C0F06D152EA2F
:1008800003353FF4FDAE1046194622E750EA410613
:1008900018BF52EA43067FF4C5AE50EA41047FF424
:1008A0000DAF52EA43057FF4EBAE12E74FF0FF3C89
:1008B00006E000BF4FF0010C02E000BF4FF0010C5A
:1008C0004DF804CD4FEA410C7FEA6C5C4FEA430CD3
:1008D00018BF7FEA6C5C1BD001B050EA410C0CBF22
:1008E00052EA430C91EA030F02BF90EA020F002084
:1008F000704710F1000F91EA030F58BF994208BFEB
:1009000090422CBFD8176FEAE37040F001007047A7
:100910004FEA410C7FEA6C5C02D150EA013C07D1FE
:100920004FEA430C7FEA6C5CD6D152EA033CD3D049
:100930005DF8040B704700BF8446104662468C4643
:100940001946634600E000BF01B5FFF7B7FF002876
:1009500048BF10F1000F01BD4DF808EDFFF7F4FF9F
:100960000CBF012000205DF808FB00BF4DF808ED2A
:10097000FFF7EAFF34BF012000205DF808FB00BF4D
:100980004DF808EDFFF7E0FF94BF012000205DF86F
:1009900008FB00BF4DF808EDFFF7CEFF94BF012024
:1009A00000205DF808FB00BF4DF808EDFFF7C4FF1D
:1009B00034BF012000205DF808FB00BF4FEA410C66
:1009C0007FEA6C5C02D150EA013C0AD14FEA430C49
:1009D0007FEA6C5C02D152EA033C02D14FF0000086
:1009E00070474FF0010070474FEA4102B2F1E04317
:1009F00024BFB3F5001CDCF1FE5C0DD901F0004C06
:100A00004FEAC0024CEA5070B2F1004F40EB830055
:100A100008BF20F00100704711F0804F21D113F181
:100A20003872BCBF01F00040704741F480114FEABA
:100A30005252C2F11802C2F1200C10FA0CF320FA43
:100A400002F018BF40F001004FEAC1234FEAD32360
:100A500003FA0CFC40EA0C0023FA02F34FEA4303CA
:100A6000CCE77FEA625307D150EA01331EBF4FF053
:100A7000FE4040F44000704701F0004040F0FE406E
:100A800040F40000704700BF80F0004002E000BF6B
:100A900081F0004142001FBF5FEA410392EA030F69
:100AA0007FEA226C7FEA236C6AD04FEA1262D2EBB3
:100AB0001363C1BFD218414048404140B8BF5B42B8
:100AC000192B88BF704710F0004F40F4000020F051
:100AD0007F4018BF404211F0004F41F4000121F067
:100AE0007F4118BF494292EA030F3FD0A2F10102B1
:100AF00041FA03FC10EB0C00C3F1200301FA03F1EF
:100B000000F0004302D5494260EB4000B0F5000F11
:100B100013D3B0F1807F06D340084FEA310102F1D0
:100B20000102FE2A51D2B1F1004F40EBC25008BF82
:100B300020F0010040EA03007047490040EB00004C
:100B4000013A28BFB0F5000FEDD2B0FA80FCACF14D
:100B5000080CB2EB0C0200FA0CF0AABF00EBC2507A
:100B600052421843BCBFD0401843704792F0000F68
:100B700081F4000106BF80F400000132013BB5E7BB
:100B80004FEA41037FEA226C18BF7FEA236C21D031
:100B900092EA030F04D092F0000F08BF0846704796
:100BA00090EA010F1CBF0020704712F07F4F04D164
:100BB000400028BF40F00040704712F100723CBF77
:100BC00000F50000704700F0004343F0FE4040F4A1
:100BD000000070477FEA226216BF08467FEA23635F
:100BE0000146420206BF5FEA412390EA010F40F44A
:100BF000800070474FF0000304E000BF10F0004396
:100C000048BF40425FEA000C08BF704743F096437C
:100C100001464FF000001CE050EA010208BF704797
:100C20004FF000030AE000BF50EA010208BF70471E
:100C300011F0004302D5404261EB41015FEA010C33
:100C400002BF84460146002043F0B64308BFA3F12B
:100C50008053A3F50003BCFA8CF2083AA3EBC2530D
:100C600010DB01FA02FC634400FA02FCC2F120022C
:100C7000BCF1004F20FA02F243EB020008BF20F063
:100C80000100704702F1200201FA02FCC2F12002C9
:100C900050EA4C0021FA02F243EB020008BF20EABE
:100CA000DC7070474FF0FF0C1CEAD0521EBF1CEAEC
:100CB000D15392EA0C0F93EA0C0F6FD01A4480EADA
:100CC000010C400218BF5FEA41211ED04FF00063C3
:100CD00043EA501043EA5111A0FB01310CF00040EF
:100CE000B1F5000F3EBF490041EAD3715B0040EA15
:100CF000010062F17F02FD2A1DD8B3F1004F40EBE5
:100D0000C25008BF20F00100704790F0000F0CF0B7
:100D1000004C08BF49024CEA502040EA51207F3A7B
:100D2000C2BFD2F1FF0340EAC250704740F4000056
:100D30004FF00003013A5DDC12F1190FDCBF00F047
:100D400000407047C2F10002410021FA02F1C2F1F5
:100D5000200200FA02FC5FEA310040F1000053EA91
:100D60004C0308BF20EADC70704792F0000F00F0DF
:100D7000004C02BF400010F4000F013AF9D040EAE5
:100D80000C0093F0000F01F0004C02BF490011F479
:100D9000000F013BF9D041EA0C018FE70CEAD15377
:100DA00092EA0C0F18BF93EA0C0F0AD030F0004CF7
:100DB00018BF31F0004CD8D180EA010000F00040AB
:100DC000704790F0000F17BF90F0004F084691F069
:100DD000000F91F0004F14D092EA0C0F01D14202A3
:100DE0000FD193EA0C0F03D14B0218BF084608D16C
:100DF00080EA010000F0004040F0FE4040F40000B6
:100E0000704740F0FE4040F4400070474FF0FF0C48
:100E10001CEAD0521EBF1CEAD15392EA0C0F93EA8F
:100E20000C0F69D0A2EB030280EA010C49024FEAE1
:100E3000402037D04FF0805343EA111143EA10139A
:100E40000CF000408B4238BF5B0042F17D024FF452
:100E5000000C8B4224BF5B1A40EA0C00B3EB510F2D
:100E600024BFA3EB510340EA5C00B3EB910F24BF16
:100E7000A3EB910340EA9C00B3EBD10F24BFA3EB9B
:100E8000D10340EADC001B0118BF5FEA1C1CE0D163
:100E9000FD2A3FF650AF8B4240EBC25008BF20F016
:100EA000010070470CF0004C4CEA50207F32C2BF6A
:100EB000D2F1FF0340EAC250704740F400004FF007
:100EC0000003013A37E792F0000F00F0004C02BF38
:100ED000400010F4000F013AF9D040EA0C0093F002
:100EE000000F01F0004C02BF490011F4000F013B5C
:100EF000F9D041EA0C0195E70CEAD15392EA0C0FC4
:100F000008D142027FF47DAF93EA0C0F7FF470AFFB
:100F1000084676E793EA0C0F04D14B023FF44CAF3E
:100F200008466EE730F0004C18BF31F0004CCAD1D3
:100F300030F000427FF45CAF31F000437FF43CAF0F
:100F40005FE700BF10B5054C237833B9044B13B1EC
:100F50000448AFF300800123237010BD5C00002023
:100F600000000000243D000808B5034B1BB10349F5
:100F70000348AFF3008008BD0000000060000020BF
:100F8000243D000800B585B000684FF0FF330293A0
:100F90000123019300920A46EE2101F06FF905B09A
:100FA0005DF804FB10B584B000684FF0FF34029484
:100FB0000193009201230A46EE2101F05FF904B08B
:100FC00010BD10B586B00C4616236A46AA21FFF75D
:100FD000E9FF00230EE05A0006A901EB430111F8D6
:100FE00018CC19326A4412F8182C42EA0C2224F860
:100FF000132001330A2BEEDD06B010BD30B583B0EF
:1010000004460160002343610DF10702D021FFF780
:10101000B9FF2071251E18BF01259DF80730552BFB
:1010200002D0FF2003B030BD04F11E012046FFF7BF
:10103000C8FF00280CBF2846681CF3E700B585B040
:1010400000684FF0FF3302930123019300920A4698
:10105000EE2101F061F805B05DF804FB00B583B046
:101060008DF807100DF10702F421FFF7E7FF03B039
:101070005DF804FB000000002DE9F04192B0044649
:101080000D4600238DF844308DF84330EC46D0F8FF
:101090001E00D4F82210D4F82620D4F82A30ACE868
:1010A0000F00D4F82E00CCF80000638EACF80430AA
:1010B0002E212046FFF7D2FF052000F015FB11AAD4
:1010C000F6212046FFF75EFF064618B1304612B003
:1010D000BDE8F0810DF14302F7212046FFF752FFF2
:1010E00006460028F2D19DF844209DF8433043EA9B
:1010F000022729462046FFF7B1FF342D00F0EB8090
:10110000742D00F0ED80B42D00F0EF80F42D00F090
:10111000F18000250DF14502F6212046FFF732FF50
:1011200006460028D2D10DF14602F7212046FFF7EE
:1011300029FF06460028C9D10DF14702F8212046B3
:10114000FFF720FF06460028C0D19DF845209DF8F6
:1011500046301B0243EA02439DF8478048EA0308F1
:10116000C5F1080348FA03F8E760C4F80880BDF841
:101170000A30FB1ABDF8082002FB03F3DB130C93C3
:10118000BDF91230DB02BDF914200C990A4493FB1F
:10119000F2F30B930C9B0B9A13440F930F9B0833A2
:1011A0001B110E930E98FFF729FD5D49FFF72EFEE8
:1011B00060610F9BA3F57A630D93BDF90E300D9A14
:1011C0000D9901FB02F2121302FB03F3DB120C93E5
:1011D000BDF902300D9A02FB03F3DB120B930C9B5B
:1011E0000B9A13440A93BDF900200A9B03EB820378
:1011F000AB4002339B100993BDF904300D9A02FBFA
:1012000003F35B130C93BDF90C300D9A0D9901FBA0
:1012100002F2121302FB03F31B140B930C9B0B9AA9
:10122000134402339B100A93BDF806300A9A02F564
:10123000004202FB03F3DB0B0693099BA8EB0308B8
:101240004CF250332B4103FB08F30893089B002B0F
:1012500055DB089B5B00069AB3FBF2F30793079BF1
:101260001B120C930C9A0C9B02FB03F30C930C9B2C
:1012700040F6DE3202FB03F31B140C93079B294A52
:1012800002FB03F31B140B930C9B0B9A134403F602
:10129000CF63079A02EB23130793079B23610798F9
:1012A000FFF7ACFC2049FFF7B1FDFFF795F818A355
:1012B000D3E9002301F076FD02460B4600201B49CE
:1012C000FEF72AFF14A3D3E90023FFF7DDF8FFF7A9
:1012D0008BFBA061FAE6052000F006FA002519E76D
:1012E000082000F001FA012514E70E2000F0FCF9B7
:1012F00002250FE71A2000F0F7F903250AE7089BFB
:10130000069AB3FBF2F35B000793A8E7AFF3008004
:10131000E445D7CC955BC83F0000000040A5E54000
:101320000000204143E3FFFF80E6C5470000F03F97
:1013300030B589B000240494059406940794254B95
:101340009A6942F010029A619A6902F010020092C2
:10135000009A9A6942F020029A619A6902F020028A
:101360000192019A9A6942F004029A619A6902F024
:1013700004020292029A9A6942F008029A619B69F9
:1013800003F008030393039B134D224620212846B4
:1013900000F044FB4FF400530493104B0593069464
:1013A00004A90F4800F02CFA20230493012305938D
:1013B00006940223079304A9284600F021FA224646
:1013C0002146282000F0EAF9282000F0F7F909B0BA
:1013D00030BD00BF001002400008014000001110A5
:1013E0000010014072B6FEE708B50A480A4B0360D8
:1013F0004FF4E133436000238360C36003610C2238
:1014000042618361C36101F04BFC00B908BDFFF785
:10141000E9FF00BFAC0000200044004008B50A48C6
:101420000A4B03600A4B436000238360C3604FF4A0
:101430008042026143618361C361036200F08EFDFB
:1014400000B908BDFFF7CEFFF400002000540040B3
:10145000A086010000B591B02822002106A801F065
:1014600074FC0023019302930393049305930223D6
:10147000069301220A9210220B920D934FF46013EF
:101480000F9306A801F0B4F880B90F23019302214D
:101490000291002303934FF480620492059301A804
:1014A00001F0D8FA20B911B05DF804FBFFF79AFFFC
:1014B000FFF798FF08B500F0F3F8FFF7CBFFFFF751
:1014C00037FFFFF791FFFFF7A9FF0E490E48FFF71F
:1014D00095FD0A2000F008F90C4C0122202120463D
:1014E00000F09CFA74210848FFF7C6FDFA2000F0CE
:1014F000FBF800222021204600F090FAFA2000F0AC
:10150000F3F8E9E7F400002078000020000801402B
:1015100082B00E4B9A6942F001029A619A6902F018
:1015200001020092009ADA6942F08052DA61DB69C6
:1015300003F080530193019B054A536823F0E06355
:1015400043F00073536002B0704700BF00100240C8
:101550000000014010B586B000230293039304936A
:1015600005930268154B9A4201D006B010BD144C89
:10157000A36943F00803A361A36903F00803009380
:10158000009B4FF4407302931223039303230593AC
:1015900002A90C4800F034F90B4A536843F0E063A9
:1015A00043F002035360E36943F40013E361E3692A
:1015B00003F400130193019BD7E700BF00540040E0
:1015C00000100240000C01400000014000B587B04F
:1015D000002302930393049305930268114B9A42EC
:1015E00002D007B05DF804FB03F5E633DA6942F494
:1015F0000032DA61DA6902F400320092009A9A69E4
:1016000042F004029A619B6903F004030193019B79
:101610000C23029302230393059302A9024800F0CE
:10162000EFF8DEE70044004000080140FEE7FEE777
:10163000FEE7FEE7FEE770477047704708B500F029
:1016400041F808BD08B54FF4005000F0EFF908BDAF
:101650007047000010B504460E4B1A784FF47A73A9
:10166000B3FBF2F30C4A1068B0FBF3F000F0B4F8EF
:1016700068B90F2C01D901200AE0002221464FF061
:10168000FF3000F08BF8054B1C60002000E00120CB
:1016900010BD00BF04000020000000200800002052
:1016A00008B5074A136843F010031360032000F0E5
:1016B00063F80020FFF7CEFFFFF72AFF002008BDE8
:1016C00000200240034A1168034B1B780B4413604F
:1016D000704700BF4801002004000020014B18683B
:1016E000704700BF4801002038B50446FFF7F6FFF9
:1016F0000546B4F1FF3F02D0044B1B781C44FFF7B2
:10170000EDFF401BA042FAD338BD00BF040000200B
:10171000002808DB0901C9B200F1604000F5614012
:1017200080F80013704700F00F000901C9B2014BA7
:101730001954704714ED00E000B500F00700C0F147
:10174000070CBCF1040F28BF4FF0040C031D062B3F
:101750000FD9C31E4FF0FF3E0EFA0CF021EA000134
:1017600099400EFA03FE22EA0E0241EA02005DF8F9
:1017700004FB0023EEE70000074AD36823F4E0638C
:101780001B041B0C000200F4E060034343F0BF6342
:1017900043F40033D360704700ED00E010B5044619
:1017A000054BD868C0F30220FFF7C6FF014620466C
:1017B000FFF7AEFF10BD00BF00ED00E0002807DB23
:1017C00000F01F02400901239340024A42F82030F2
:1017D000704700BF00E100E00138B0F1807F0BD21C
:1017E0004FF0E0235861054AF02182F823100020D1
:1017F000986107221A6170470120704700ED00E0F0
:1018000070B582B00024A446A1E07E4DAB4214D056
:101810000CD8A5F58015AB420FD005F57025AB426D
:101820000BD0A5F58015AB4210D106E0764DAB424A
:1018300003D005F58035AB4208D18B68002B50D022
:10184000012B49D04261082400E0CC68BEF1FF0FB3
:1018500049D806464FEA8C0233680F25954023EAA3
:10186000050304FA02F2134333604B6813F0805F00
:101870006BD0664B9A6942F001029A619B6903F052
:1018800001030193019B4FEA9C02951C604B53F8A6
:1018900025600CF00305AD000F23AB4026EA0306DC
:1018A0005C4B984226D003F58063984200F08C8010
:1018B00003F58063984200F0898003F580639842C5
:1018C00016D0042317E0CC680434BFE7CC68083492
:1018D000BCE7CC680C34B9E702610824B6E7002401
:1018E000B4E70424B2E7061DACF108029200B3E7A6
:1018F000032300E00023AB4033430232444D45F85C
:1019000022304B6813F4801F62D0434A936843EA45
:101910000E0393604B6813F4001F5FD03E4AD368F8
:1019200043EA0E03D3604B6813F4003F5CD03A4A9D
:10193000536843EA0E0353604B6813F4803F59D059
:10194000354A136843EA0E0313600CF1010C0B686F
:1019500033FA0CF254D0012202FA0CF203EA020E1E
:1019600032EA0303F1D14B68122B3FF64EAF122B34
:101970003FF66CAF01A555F823F000BF3B180008F7
:101980004B180008CD180008DF1800084D18000893
:101990004D1800084D1800084D1800084D18000893
:1019A0004D1800084D1800084D1800084D18000883
:1019B0004D1800084D1800084D1800084D18000873
:1019C000C7180008D3180008012394E7022392E700
:1019D000114A936823EA0E0393609BE70E4AD3688B
:1019E00023EA0E03D3609EE70B4A536823EA0E03F3
:1019F0005360A1E7084A136823EA0E031360A4E7C3
:101A000002B070BD00002210000031100010024032
:101A10000000014000080140000401400AB10161DA
:101A200070470904016170477047000008B5054B15
:101A30005B69034200D108BD024B5861FFF7F4FF18
:101A4000F9E700BF0004014003685A6912F4806F8F
:101A500001D1002070476FF480625A610023036354
:101A6000202280F83D2080F83E30026C42F00402D3
:101A7000026480F83C30012070472DE9F0410646B1
:101A80000C46174698463BE0FFF728FE069BC01A17
:101A9000404502D8B8F1000F32D1012D18D033687B
:101AA0009B6924EA03039BB2B3FA83F35B099F4269
:101AB00026D100233363202286F83D2086F83E306D
:101AC000326C42F02002326486F83C30012027E07C
:101AD00033685B6924EA03039BB2B3FA83F35B09BF
:101AE000E5E733685B6924EA030C1FFA8CFCBCFA57
:101AF0008CFC4FEA5C1C674511D1B8F1FF3FC3D1A4
:101B0000C4F30745012DECD033689B6924EA030C2C
:101B10001FFA8CFCBCFA8CFC4FEA5C1CEBE7002043
:101B2000BDE8F0812DE9F84305460E4690469946FA
:101B300053E01A6842F400721A602B686FF48062F6
:101B40005A6100232B63202285F83D2085F83E3022
:101B50002A6C42F004022A6485F83C3001204AE0F5
:101B6000FFF7BCFDA0EB0900404502D8B8F1000F1B
:101B700033D1012F17D02B689B6926EA03039BB250
:101B8000003B18BF012343B300232B63202285F8B9
:101B90003D2085F83E302A6C42F020022A6485F808
:101BA0003C30012027E02B685B6926EA03039BB2E7
:101BB000003B18BF0123E6E72B689C6926EA040472
:101BC000A4B2003C18BF0124A4B12B685A6912F4D6
:101BD000806FAED1B8F1FF3FC2D1C6F30747012FE6
:101BE000EAD12B685C6926EA0404A4B2003C18BF61
:101BF0000124E9E70020BDE8F88370B504460D46EE
:101C0000164623685B6913F0800F21D12046FFF749
:101C10001BFFF8B9B5F1FF3FF3D0FFF75FFD801B65
:101C2000A84201D8002DECD123685B6913F0800F26
:101C3000E7D100232363202284F83D2084F83E303E
:101C4000226C42F02002226484F83C30012000E043
:101C5000002070BD0120FCE72DE9F04385B004466B
:101C60000D4691461F46DDF830800D9E03681968C9
:101C700041F4807119600096434600224FF0011133
:101C8000FFF7FBFE60B9236805F0FE051D613346D2
:101C9000424626492046FFF745FF68B1012008E08B
:101CA00023681B6813F4807F02D04FF40073236411
:101CB000032005B0BDE8F0830023039323685A692D
:101CC00003929B690393039B324641462046FFF7EC
:101CD00094FF30B9012F0FD123685FFA89F61E6196
:101CE000E7E7236C042B01D00120E2E722681368A8
:101CF00043F400731360F7E723684FEA19221A616F
:101D0000324641462046FFF778FF20B923685FFA44
:101D100089F61E61CDE7236C042B01D00120C8E7B2
:101D20002268136843F400731360F7E702000100B0
:101D30002DE9F04784B004460D46164699460C9F9F
:101D4000DDF834800268136843F48063136003682D
:101D5000196841F480711960CDF800803B4600227B
:101D60004FF00111FFF789FE70B95FFA85FA236819
:101D700005F0FE051D6143463A4641492046FFF7FE
:101D8000D1FE68B1012008E023681B6813F4807F4E
:101D900002D04FF400732364032004B0BDE8F08741
:101DA0000023039323685A6903929B690393039B5F
:101DB000424639462046FFF720FF80B9B9F1010FAE
:101DC00018D12368F6B21E61424639462046FFF715
:101DD00014FF68B3236C042B24D00120DDE7236CAF
:101DE000042B01D00120D8E72268136843F4007364
:101DF0001360F7E72368320A1A61424639462046E3
:101E0000FFF7FBFE18B92368F6B21E61DCE7236C0E
:101E1000042B01D00120C0E72268136843F400734B
:101E20001360F7E72268136843F400731360D4E784
:101E30002268136843F480731360CDF800803B463A
:101E400000224FF001112046FFF717FE68B9226803
:101E50004AF00103136143463A4609492046FFF719
:101E600061FE002899D0012097E723681B6813F4CE
:101E7000807F02D04FF40073236403208DE700BFFE
:101E80000200010070B504460D46164623685B69E2
:101E900013F0040F21D12046FFF7D6FDF8B9B5F1B4
:101EA000FF3FF3D0FFF71AFC801BA84201D8002D9A
:101EB000ECD123685B6913F0040FE7D1002323639F
:101EC000202284F83D2084F83E30226C42F020022B
:101ED000226484F83C30012000E0002070BD012025
:101EE000FCE770B504460D46164614E06FF010028C
:101EF0005A6100232363202284F83D2084F83E3079
:101F0000226C226484F83C30012025E023685B6960
:101F100013F0400F10D02368586910F0400F1AD109
:101F2000586910F0100FE1D1FFF7D8FB801BA842D1
:101F3000ECD8002DEFD1E9E700232363202284F8B9
:101F40003D2084F83E30226C42F02002226484F866
:101F50003C30012000E0002070BD0000002800F0AF
:101F6000CC8070B5044690F83D30002B77D0242308
:101F700084F83D302268136823F00103136022685F
:101F8000136843F4004313602268136823F400438A
:101F9000136000F01BFE62685A4B9A4264D85A4B99
:101FA00098428CBF00230123002B40F0A8805749A2
:101FB000A1FB00318B0C25686A6822F03F0242EADF
:101FC00091426A6021680A6A22F03F0266684D4DBC
:101FD000AE424FD8013313430B622168CA6922F421
:101FE0004F4222F0FF026568464B9D424CD8431E8B
:101FF0006D00B3FBF5F3013340F6FC70034278D07B
:10200000C3F30B031A43CA6121680B6823F0C003B2
:10201000E269206A024313430B6021688B6823F452
:10202000034323F0FF032269E068024313438B60FC
:102030002168CB6823F0FF036269A0690243134360
:10204000CB602268136843F0010313600020206412
:10205000202384F83D30206384F83E0070BD80F872
:102060003C30FFF777FA82E7294B98428CBF002378
:10207000012399E74FF4967505FB03F3254DA5FB66
:1020800003539B090133A6E7A668BEB9431E05EBBF
:10209000450CB3FBFCF30133C3F30B03B3FA83F337
:1020A0005B0943BBC6B9431E05EB4505B3FBF5F31E
:1020B0000133C3F30B0343F40043A3E7431E05EBD3
:1020C000850C0CEB8C0CB3FBFCF30133C3F30B035B
:1020D000B3FA83F35B09E4E7431E05EB850505EBE3
:1020E0008505B3FBF5F30133C3F30B0343F440431E
:1020F00088E7042386E7012384E701207047012055
:10210000ACE700BFA08601007F841E0083DE1B4376
:10211000FF083D00D34D62102DE9F04383B0044623
:102120000F46904699460C9EFFF7D8FA054694F85C
:102130003D00C0B2202803D0022003B0BDE8F083E8
:102140000095192301224B492046FFF796FC0028F1
:1021500040F0898094F83C30012B00F08680012308
:1021600084F83C3023681A6812F0010F03D11A6812
:1021700042F001021A602268136823F400631360BE
:10218000212384F83D30402384F83E30002323642B
:102190000A9B6362BDF82C306385638D2385364BC3
:1021A000E362019500964B46424639462046FFF7CA
:1021B00053FD00285BD1238D002B35D02A463146B4
:1021C0002046FFF71AFD20BB626A236812781A6165
:1021D000626A531C6362218D013989B22185638D46
:1021E0009BB2013B9BB263852368586910F0040FD2
:1021F000E1D00029DFD052781A61636A013363624B
:10220000238D013B2385638D9BB2013B9BB263858C
:10221000D1E7236C042B01D001208EE722681368DC
:1022200043F400731360F7E72A4631462046FFF770
:1022300029FE50B1236C042B01D001207DE72268D8
:10224000136843F400731360F7E72268136843F4DC
:1022500000731360202384F83D30002384F83E305F
:1022600084F83C3069E7022067E7022065E7012037
:1022700063E700BF020010000000FFFF2DE9F043FC
:1022800089B004460F4690469946129E0023079354
:10229000FFF724FA054694F83D00C0B2202804D088
:1022A0000227384609B0BDE8F083009519230122C2
:1022B00081492046FFF7E1FB002840F0728194F845
:1022C0003C30012B00F06F81012384F83C302368FF
:1022D0001A6812F0010F03D11A6842F001021A6065
:1022E0002268136823F400631360222384F83D30CE
:1022F000402384F83E3000232364109B6362BDF8C2
:1023000044306385638D23856C4BE36201950096B1
:102310004B46424639462046FFF70AFD074600284D
:1023200040F04381238D5BB9039323685A6903927C
:102330009A690392039A1A6842F400721A60EDE0F7
:10234000012B0FD0022B21D02268136843F4806345
:1023500013600023069323685A6906929B690693CB
:10236000069BDBE02268136823F48063136072B677
:102370000023049323685A6904929A690492049A88
:102380001A6842F400721A6062B6C7E022681368E5
:1023900043F40063136072B60023059323685A69FF
:1023A00005929A690592059A1A6822F480621A6069
:1023B00062B6B3E02A4631462046FFF792FD002878
:1023C00040F0F58023681A69636A1A70636A013302
:1023D0006362238D013B2385638D9BB2013B9BB2DE
:1023E00063859BE000953346002235492046FFF780
:1023F00044FB002840F0DF802268136823F48063E8
:10240000136072B623681A69636A1A70636A0133CB
:102410006362238D013B2385638D9BB2013B9BB29D
:102420006385284B1B68DB08274AA2FB03231B0A92
:1024300003EB8303C3EBC3030793079B013B0793A2
:10244000079B002B28D023685A6912F0040FF4D0A0
:102450001A6842F400721A6023681A69636A1A7073
:10246000636A01336362238D013B2385638D9BB2D5
:10247000013B9BB2638562B623681A69636A1A706E
:10248000636A01336362238D013B2385638D9BB2B5
:10249000013B9BB2638541E02363202284F83D2009
:1024A00084F83E30226C42F02002226462B684F846
:1024B0003C300127F5E600BF020010000000FFFFDE
:1024C000040001000000002089B5F8142A463146B6
:1024D0002046FFF706FD00286FD123681A69636A5A
:1024E0001A70626A531C6362238D013B2385638DDE
:1024F0009BB2013B9BB263852368596911F0040FBD
:102500000CD01B695370636A01336362238D013BF6
:102510002385638D9BB2013B9BB26385238D002B8A
:1025200036D0032BD2D8012B3FF444AF022B7FF4DB
:1025300059AF00953346002221492046FFF79DFA06
:10254000002836D172B62268136843F40073136012
:1025500023681A69636A1A70636A01336362238DA0
:10256000013B2385638D9BB2013B9BB2638562B6C1
:1025700023681A69636A1A70636A01336362238D80
:10258000013B2385638D9BB2013B9BB26385C5E70D
:10259000202384F83D30002384F83E3084F83C301A
:1025A0007FE602277DE602277BE6012779E6012701
:1025B00077E6012775E6012773E6012771E600BF7C
:1025C0000400010082B0084B1B68084AA2FB0323E9
:1025D0005B0A00FB03F3019300BF019B5A1E0192AB
:1025E000002BF9D102B0704700000020D34D6210DB
:1025F000002800F0F18170B582B00446036813F042
:10260000010F2CD0994B5B6803F00C03042B1DD0F9
:10261000964B5B6803F00C03082B12D06368B3F58C
:10262000803F41D0002B55D103F1804303F50433A3
:102630001A6822F480321A601A6822F480221A6022
:1026400037E08A4B5B6813F4803FE7D0874B1B6809
:1026500013F4003F03D06368002B00F0BF812368B0
:1026600013F0020F75D0814B5B6813F00C0F5FD035
:102670007E4B5B6803F00C03082B54D02369002BBE
:1026800000F08A807A4B01221A60FFF727F805468E
:10269000764B1B6813F0020F75D1FFF71FF8401B34
:1026A0000228F5D903209EE1704A136843F4803371
:1026B0001360636843B3FFF711F805466B4B1B6863
:1026C00013F4003FCBD1FFF709F8401B6428F5D97C
:1026D000032088E1B3F5A02F09D0644B1A6822F4D7
:1026E00080321A601A6822F480221A60E1E703F14E
:1026F0008043A3F53C331A6842F480221A601A68BA
:1027000042F480321A60D4E7FEF7E8FF0546574BE3
:102710001B6813F4003FA2D0FEF7E0FF401B6428C3
:10272000F5D903205FE1514B5B6813F4803FA5D1DD
:102730004E4B1B6813F0020F03D02369012B40F0AE
:102740004F814A4A136823F0F803616943EAC103E1
:102750001360236813F0080F33D0A369002B5CD0FB
:10276000434B0122C3F88024FEF7B8FF05463F4BD8
:102770005B6A13F0020F21D1FEF7B0FF401B022865
:10278000F5D903202FE1394A136823F0F803616972
:1027900043EAC1031360DCE7354B00221A60FEF701
:1027A0009DFF0546314B1B6813F0020FD1D0FEF799
:1027B00095FF401B0228F5D9032014E10120FFF703
:1027C00001FF236813F0040F00F09680274BDB69AC
:1027D00013F0805F34D1254BDA6942F08052DA6120
:1027E000DB6903F080530193019B0125214B1B689A
:1027F00013F4807F26D0E368012B3DD0002B53D10A
:1028000003F1804303F504331A6A22F001021A62CD
:102810001A6A22F004021A6233E0154B0022C3F850
:102820008024FEF75BFF0546104B5B6A13F0020F36
:10283000C7D0FEF753FF401B0228F5D90320D2E092
:102840000025D3E70B4A136843F480731360FEF747
:1028500045FF0646074B1B6813F4807FCBD1FEF77C
:102860003DFF801B6428F5D90320BCE00010024026
:1028700000004242007000405F4A136A43F00103C7
:102880001362E36833B3FEF729FF06465A4B1B6A0F
:1028900013F0020F2FD1FEF721FF801B41F2883386
:1028A0009842F3D903209EE0052B09D0524B1A6AB7
:1028B00022F001021A621A6A22F004021A62E0E7A8
:1028C0004D4B1A6A42F004021A621A6A42F001027F
:1028D0001A62D6E7FEF702FF0646474B1B6A13F063
:1028E000020F08D0FEF7FAFE801B41F288339842AF
:1028F000F3D9032077E0E5B9E369002B72D03E4AB3
:10290000526802F00C02082A56D0022B17D03B4B1B
:1029100000221A66FEF7E2FE0446374B1B6813F0EE
:10292000007F47D0FEF7DAFE001B0228F5D903200E
:1029300059E0314AD36923F08053D361DCE72F4B50
:1029400000221A66FEF7CAFE05462B4B1B6813F0E1
:10295000007F06D0FEF7C2FE401B0228F5D90320F7
:1029600041E0236AB3F5803F1AD023494B6823F432
:102970007413226A606A024313434B601F4B0122A7
:102980001A66FEF7ABFE04461B4B1B6813F0007F74
:102990000ED1FEF7A3FE001B0228F5D9032022E08A
:1029A000154A536823F40033A1680B435360DCE7F6
:1029B000002018E0002016E0012B16D00E4B5B68BB
:1029C00003F48031226A914211D103F47013626AD8
:1029D00093420ED1002006E001207047012002E062
:1029E000012000E0002002B070BD0120FBE70120C3
:1029F000F9E70120F7E700BF001002400000424263
:102A00000F4B5B6803F00C02082A01D00D48704799
:102A1000C3F383420C49885C13F4803F0BD0084B0E
:102A20005B68C3F34043094AD35C064A02FB00F0EB
:102A3000B0FBF3F07047064B03FB00F0704700BF9C
:102A40000010024000127A005C3D0008583D00086A
:102A500000093D00002800F0A08070B50D46044636
:102A6000524B1B6803F007038B420BD24F4A13688B
:102A700023F007030B431360136803F007038B4233
:102A800040F08D80236813F0020F17D013F0040F6D
:102A900004D0474A536843F4E0635360236813F05B
:102AA000080F04D0424A536843F460535360404ACD
:102AB000536823F0F003A1680B435360236813F0BD
:102AC000010F31D06368012B20D0022B25D0384A6A
:102AD000126812F0020F64D035494A6822F00302EE
:102AE00013434B60FEF7FAFD0646314B5B6803F07B
:102AF0000C036268B3EB820F16D0FEF7EFFD801B6C
:102B000041F288339842F0D9032045E0284A126800
:102B100012F4003FE0D101203EE0254A126812F095
:102B2000007FD9D1012037E0204B1B6803F0070359
:102B3000AB420AD91D4A136823F007032B431360E5
:102B4000136803F00703AB422DD1236813F0040F81
:102B500006D0174A536823F4E063E1680B435360DF
:102B6000236813F0080F07D0114A536823F4605309
:102B7000216943EAC1035360FFF742FF0C4B5B68D6
:102B8000C3F303130B4AD35CD8400B4B18600B4BB9
:102B90001868FEF75FFD002070BD0120704701201E
:102BA000FAE70120F8E70120F6E700BF0020024025
:102BB00000100240483D00080000002008000020EE
:102BC000014B1868704700BF0000002008B5FFF7F0
:102BD000F7FF044B5B68C3F30223034AD35CD8407E
:102BE00008BD00BF00100240403D000808B5FFF7D7
:102BF000E7FF044B5B68C3F3C223034AD35CD840AE
:102C000008BD00BF00100240403D000810B504465A
:102C10000268136923F44053C1680B43136183684E
:102C20000269134342691A430168CB6823F4B05325
:102C300023F00C031343CB600268536923F4407301
:102C400081690B4353610268134B9A4220D0FFF70E
:102C5000BDFF024602EB820202EB820263689B0028
:102C6000B2FBF3F20D48A0FB02314909642303FBD8
:102C700011231B013233A0FB03035B0903F0F002B5
:102C800002EB011203F00F03216813448B6010BDA7
:102C9000FFF7ACFF0246DDE7003801401F85EB512E
:102CA00060B310B5044690F8413013B3242384F880
:102CB00041302268D36823F40053D3602046FFF7E5
:102CC000A5FF2268136923F49043136122685369B6
:102CD00023F02A0353612268D36843F40053D3607E
:102CE00000206064202384F8413084F8423060631F
:102CF00010BD80F84030FEF769FCD7E7012070472F
:102D0000FEF7A6FC0B480C490C4A002302E0D458FD
:102D1000C4500433C4188C42F9D3094A094C002327
:102D200001E013600432A242FBD300F017F8FEF773
:102D3000C1FB7047000000205C000020883D0008B7
:102D40005C00002084020020FEE703460244934218
:102D500000D1704703F8011BF9E7000070B50026A9
:102D60000C4D0D4C641BA410A64209D100F0DAFFF3
:102D700000260A4D0A4C641BA410A64205D170BD62
:102D800055F8043B98470136EEE755F8043B984761
:102D90000136F2E7803D0008803D0008803D0008D4
:102DA000843D00082DE9F84314461D4680468946B7
:102DB00000F06EF8224606460F462B46204629466E
:102DC000FDF7FCFD78B90022002340464946FDF797
:102DD000C3FDD8B10022002320462946FDF7BCFDE3
:102DE00028B10026254F30463946BDE8F8832046F5
:102DF000294600F045F80028F5D020462946002253
:102E00000023FDF7B3FD0028EDD02CE03046394615
:102E100000F036F8A0B10022002330463946FDF715
:102E20009BFD0028DFD04046494600F029F80028E5
:102E3000D9D02046294600F023F80028D3D012E04C
:102E40004046494600F01CF80028E4D020462946B8
:102E500000F016F80028DED032463B4630463946B0
:102E6000FDF7ACFD20B900F057FF22230360BAE75D
:102E700000F052FF21230360B5E700BF0000F03FE0
:102E800041F0004000F58010C00F704700000000C6
:102E90002DE9F04F23F000470D4657EA0201924614
:102EA0009B46044693B010D12319814885F4002233
:102EB00052419942904121D252465B4620462946D2
:102EC000FDF72CF913B0BDE8F08F9946794B25F04A
:102ED000004199422E460090029114D9009B06F1C0
:102EE000404606F580161E43E6D153467049DB186E
:102EF0008BF4002252419E429141DDD300206E4965
:102F000013B0BDE8F08F14D09F42E7D8029B00F0C9
:102F1000A580002E15DB002A40F0B88066498F425C
:102F200040F0CE83B9F1000FC0F2B58420462946A7
:102F3000C8E70028C0D18F42BED800F0F283029BC0
:102F4000E7E75E498F4200F2B5835D498F423DD885
:102F5000002A40F0C483B9F1804F30D0904620461B
:102F60002946049300F038FD009A049B002A4DD0B6
:102F7000F20F013A52EA080C00F09680002408F1A2
:102F8000FF3858EA020814BF4B4D4E4DB7F1844F3D
:102F9000CDE9064540F29A804B4B029A9F42484B3E
:102FA00040F2F6839A4200F28784B9F1000FC0F232
:102FB0008784002013B0BDE8F04F00F0B3BD224677
:102FC0002B4620462946FDF75FFA7BE73915A1F22B
:102FD000FF31142940F34684C1F1340122FA01F093
:102FE00000FA01F1914200F0AF84002A40F07783AB
:102FF000B9F1804F0493E2D02046294600F0ECFC62
:10300000009A049B002A4FD1DDF800802A4A26F05E
:10301000404C944502D0029A002AA9D1B9F1000F80
:1030200005DA02460B4600202349FDF757FB002E28
:10303000BFF648AF029B03F1404B0BF5801B5BEAE8
:10304000080B40F0308402460B4610461946FDF747
:1030500063F802460B46FDF741FB33E7002A7FF495
:103060003DAF029B009A03F1404303F580131343E5
:103070003FF444AF124B029A9A4240F2E683B9F110
:10308000000FC0F25084504659461BE74FF000082D
:1030900020462946049300F09FFC009A049B002AD6
:1030A000B4D0F20F013A69E722462B46CDE700BFC4
:1030B0000000F0FF0000F07F0000F03FFFFF3F4303
:1030C000FFFFEF3F0000F0BF0000F043D04A324066
:1030D000002A40F02A83CF4B0022FDF7D5F96FF08C
:1030E00034040B461A15A2F2FF321519CA4AC3F36B
:1030F000130343F07F5493420B9544F4401407DDCF
:10310000C64A934240F3E28301350B95A4F580143F
:103110000022002300260025C14FCDE90823CDE978
:103120000467CDE91023DDE9042321468046FCF73E
:10313000F3FFDDE90423A14606460F46404621463B
:10314000CDE90C89FCF7EAFF02460B460020B449A2
:10315000FDF7C4FA02460B4630463946CDE90E2348
:10316000FDF792F980468946641044F0005404F556
:10317000002359190D464A46414600230020CDE957
:1031800000120093044602462B46CDE90289DDE990
:10319000008940464946FDF777F902460B4630461E
:1031A0003946FCF7B9FFDDE9042306460F46204601
:1031B0002946FCF7B1FF02460B46DDE90C01FCF79E
:1031C000ABFF42464B46FDF75FF902460B463046E1
:1031D0003946FCF7A1FFDDE90E23FDF755F9DDE9DE
:1031E0000245CDE9040122462B4620462946FDF73B
:1031F0004BF975A3D3E9002304460D46FDF744F9C6
:1032000073A3D3E90023FCF789FF22462B46FDF781
:103210003BF971A3D3E90023FCF780FF22462B463C
:10322000FDF732F96EA3D3E90023FCF777FF2246BE
:103230002B46FDF729F96CA3D3E90023FCF76EFFB9
:1032400022462B46FDF720F969A3D3E90023FCF7BA
:1032500065FF224606460F462B4620462946FDF7C7
:1032600013F902460B4630463946FDF70DF9044680
:103270000D46DDE9020142464B46FCF74FFFDDE912
:103280000423FDF701F922462B46FCF747FF42468F
:1032900006460F464B4640464946FDF7F5F80022E4
:1032A000604B04460D46FCF739FF32463B46CDE9FC
:1032B0000C67FCF733FF00260F4632463B4640467C
:1032C0004946FDF7E1F800228046894630463946F6
:1032D000544BFCF721FF22462B46FCF71DFF02460C
:1032E0000B46DDE90C01FCF717FFDDE90223FDF7D2
:1032F000CBF8324604460D46DDE904013B46FDF7B6
:10330000C3F802460B4620462946FCF707FF06464F
:103310000F46002432463B4640464946FCF7FEFE37
:1033200035A3D3E9002320460D46FDF7ADF842460C
:103330004B468046894620462946FCF7EDFE02466C
:103340000B4630463946FCF7E7FE2DA3D3E90023B0
:10335000FDF79AF802460B462046294614461D46BC
:1033600029A3D3E90023FDF78FF802460B46204638
:103370002946FCF7D3FEDDE91023FCF7CFFE044617
:103380000B980D46FDF716F806460F4622462B46CB
:1033900040464946CDE90289FCF7C0FEDDE9082335
:1033A000FCF7BCFE32463B46FCF7B8FE0020324636
:1033B0003B4680468946FCF7AFFEDDE90823FCF773
:1033C000ABFEDDE902232FE0EF4E454A287ECA3FDF
:1033D00065DBC9934A86CD3F01411DA96074D13F89
:1033E0004D268F515555D53FFFAB6FDBB66DDB3F9B
:1033F000033333333333E33F000000E009C7EE3FCC
:10340000FD033ADC09C7EE3FF5015B14E02F3EBE39
:103410000000F07F000040438E98030079B60B0057
:103420000000F03F00000840FCF776FE02460B4625
:1034300020462946FCF770FE0023CDE900AB00933F
:10344000DDE90067CDE9020132463B465046594668
:10345000FCF762FE42464B46FDF716F8524604461C
:103460000D46DDE902015B46FDF70EF802460B460C
:1034700020462946FCF752FE04460D4632463B469E
:1034800040464946CDE90245FCF7FEFF06460F4699
:10349000204629463B463246FCF740FEB64B0446E2
:1034A00099420D46884640F31C8101F13F4303F5E4
:1034B000E003034340F01B829DA3D3E90023DDE931
:1034C0000201FCF72BFE02460B4620462946144615
:1034D0001D4632463B46FCF71FFE02460B46204681
:1034E0002946FDF761FA002840F001824FF400738D
:1034F00000204344C3F30A52A04CA2F2FF3214410D
:10350000C3F3130AC2F1140204EA03014AF4801A55
:103510000B464AFA02FAB8F1000F02463946304625
:10352000B8BFCAF1000AFCF7F7FD06460F46DDE911
:10353000020132463B46FCF7F1FD0D464FEA0A5BBD
:1035400000247DA3D3E9002320462946FCF79CFFF5
:103550003246804689463B4620462946FCF7DCFD3C
:1035600002460B46DDE90201FCF7D6FD74A3D3E960
:103570000023FCF789FF02460B46204629461446E5
:103580001D4671A3D3E90023FCF77EFF02460B46DC
:1035900020462946FCF7C2FD06460F4632463B460A
:1035A00040464946FCF7BAFD42464B4604460D46A6
:1035B000FCF7B2FD02460B4630463946FCF7ACFD3F
:1035C0002246804689462B4620462946FCF75CFF6A
:1035D0005FA3D3E9002306460F46FCF755FF5EA321
:1035E000D3E90023FCF798FD32463B46FCF74CFF3D
:1035F0005BA3D3E90023FCF791FD32463B46FCF781
:1036000043FF59A3D3E90023FCF786FD32463B462E
:10361000FCF73AFF56A3D3E90023FCF77FFD3246BF
:103620003B46FCF731FF02460B4620462946FCF795
:1036300073FD06460F4632463B4620462946FCF7B8
:1036400023FF02460B463046394616461F460022E7
:103650004FF08043FCF760FD02460B46304639468A
:10366000FDF73CF8424606460F464B4620462946A3
:10367000FCF70AFF42464B46FCF750FD02460B465C
:1036800030463946FCF748FD22462B46FCF744FD00
:1036900002460B4600203A49FCF73EFD0C465C44CE
:1036A000B4F5801FC0F22D812146DDE90623FCF729
:1036B000EBFE07E44FF00208002A7FF4E9AC4EE489
:1036C000B9F1804F3FF47BAC2E4989457FF446AC7D
:1036D0002046294613B0BDE8F04F00F02FBA0493FE
:1036E0008AE4DFF8A4C021F00043634540F2CB80B8
:1036F000264B0B4403430AD132463B46FCF70CFDF4
:10370000DDE90223FDF746F900283FF4EFAEDDE9DD
:10371000060100220023FDF729F9003818BF012017
:1037200048E4002A7FF4C8ABA4E40024DAE400BF34
:10373000FE822B654715973C00000000432EE63FB4
:10374000EF39FAFE422EE63F396CA80C615C20BED0
:10375000D0A4BE726937663EF16BD2C541BDBB3E97
:103760002CDE25AF6A56113F93BDBE166CC1663F75
:103770003E5555555555C53FFFFF8F400000F0FFA2
:103780000000F03F0000E03FFFCB904000346F3F6F
:103790009A42C0F0BA80029A8B4B9A424FF00002D4
:1037A00000F2C580884BFCF7B7FC7BA3D3E900236C
:1037B00004460D46FCF768FE79A3D3E90023804652
:1037C000894620462946FCF75FFE0022CDE900012C
:1037D0007E4B20462946FCF757FE02460B4672A157
:1037E000D1E90001FCF798FC22462B46FCF74CFE81
:1037F00002460B4600207649FCF78EFC22462B46FB
:1038000006460F4620462946FCF73EFE02460B467A
:1038100030463946FCF738FE65A3D3E90023FCF7B0
:1038200033FE02460B46DDE90001FCF775FC044659
:103830000D464046494622462B46FCF76FFC0020C9
:1038400042464B4680468946EEE5B9F1000F4FF0FF
:1038500000004FF00001BFF635AB50460BF10041C0
:10386000FFF730BB002A7FF43AAFC1F1140147FAE9
:1038700001F000FA01F1B9426DD053498F423FF493
:1038800051ABFFF768BB524A93427AD8DDE9002377
:103890009346924654E622462B4600204A49FCF7BE
:1038A0001DFFFFF70FBBB8F1010F7FF40BAB01F168
:1038B00000431946FFF706BBB9F1000F7FF779AB5C
:1038C000002013B0BDE8F04F00F032B90022414BA8
:1038D0004FF48025CDE9042337A3D3E90023CDE9B4
:1038E000082337A3D3E90023CDE910231BE40022EA
:1038F000DDE906010023FDF739F8003818BF012083
:10390000DFE7524600F06CF8CFE60022DDE9060161
:103910000023FDF72BF8003818BF0120B9F1000F84
:10392000BFF648ABCDE700200021FFF7CBBA00235C
:10393000DDE90601FDF71AF8003818BF0120B9F1DA
:10394000000FBEDCFFF736BB9AB100F00100C0F1FA
:103950000208FFF79DBB1C4A97423FF4E3AAB9F166
:10396000804F3FF42CAB00F00100C0F10208FFF7DC
:10397000F6BAB9F1804F3FF422AB4FF00208FFF7DF
:10398000EEBA4FF480121B15A3F2FE3342FA03F392
:10399000AEE500BFAFF30080000000604715F73FC1
:1039A00044DF5DF80BAE543E555555555555D53F42
:1039B000FE822B654715F73F0000004003B8E23F49
:1039C00006D0CF43EBFD4C3E0000F03F0000D03F5F
:1039D0000000E03F0000F83F21F000431946704727
:1039E0002DE9F0411646C1F30A52074688460B46B8
:1039F0006ABB21F00043034327D0334B0022FCF77E
:103A000043FD324B07469E4288463CDB0B46C1F3E2
:103A10000A52363A4CF250318E4221DC164440F2C2
:103A2000FE7296421CDC002E26DC16F1350F31DBCF
:103A300023F0FF4121F4E001363641EA0655002229
:103A400038462946224BFCF71FFDBDE8F08140F2C5
:103A5000FF7C6245DED10246FCF760FBBDE8F081E9
:103A6000454615A3D3E9002363F31E0529461948EB
:103A7000FCF70AFDBDE8F0816FF31E53384643EAB8
:103A80000651BDE8F0810EA3D3E90023FCF7FCFC4E
:103A9000BDE8F08108F0004444F0D27141F4B73140
:103AA00007A3D3E900230C4841F01F01FCF7ECFC0D
:103AB000CBE700BFAFF300809C7500883CE4377E05
:103AC00059F3F8C21F6EA50100005043B03CFFFF40
:103AD0000000903C9C75008859F3F8C2D0B50646AA
:103AE0000F46144600F018F90346394630461C606C
:103AF000D0BD00BF00B583B080B1104603F10041D6
:103B0000CDE9000110461946DDE90023FCF7BCFCB5
:103B1000222203B05DF804EBFFF7E0BF1046194620
:103B2000EEE700BF00224FF08053FFF7E3BF00BF76
:103B300000224FF0E043FFF7DDBF00BF2DE9F84F53
:103B4000724D06468D430F4600F0A48000290C46B6
:103B50000246034656DD081500F0C780C4F3130281
:103B6000C107A0F2FF3742F4801203D4D90F01EB52
:103B700042025B00002616244FF40011B4465200A6
:103B800002EBD3727F105B000CEB010090424FEA16
:103B9000D3754FEA430303DC00EB010C121A0E4409
:103BA000013C05EB42024FEA5101EDD120254FF0D7
:103BB0000040A0460AE03CD0510001EBD371013D2A
:103BC0000A464FEA43034FEA50003ED0944508EBC3
:103BD000000EF0DABEF1000F0EEB00080CDBE14640
:103BE000A2EB0C01CC469E4588BF01F1FF31490094
:103BF000A3EB0E030444E0E7B8F1000FEFDB0CF198
:103C00000109EDE721F0004505433DD0002964D1CD
:103C1000DA0A153C5B05002AFAD0D602204619467E
:103C2000144663D520254FF0FF32E940801A0C433B
:103C300094E79E4502D94FEA4C01BEE7BEF1000F62
:103C40000EEB000822DB0021D2E7194312D0DFF887
:103C5000C0A0DFF8C0B0DAE90001DBE90023FCF71F
:103C60005BFADAE9008902460B4640464946FCF712
:103C700087FEC8B96508731003F17F5303F500137D
:103C800003EB075145EAC670BDE8F88FB8F1000FA5
:103C9000B5DAD8E702460B46FCF7F6FB32463B4660
:103CA000FCF73CFABDE8F88FB4F1FF3FDAE9000118
:103CB000DBE9002326D0DAE90089FCF72FFA024677
:103CC0000B4640464946FCF751FEE8B1A31C04F1FF
:103CD000020508BF01366D08CDE70B46FCF71CFA5C
:103CE00002460B46FCF7FAFCCEE73146002364009F
:103CF000E5021A4603F10103F9D5C3F1200501FAE3
:103D000003F392E70136B6E70134B3E70000F07F32
:103D1000783D0008703D0008014B1868704700BFEF
:103D20000C000020F8B500BFF8BC08BC9E467047E8
:0C3D3000F8B500BFF8BC08BC9E46704708
:103D40000000000001020304000000000000000069
:103D5000010203040607080901020000020304052A
:103D6000060708090A0B0C0D0E0F101000000000CA
:103D700059F3F8C21F6EA501000000000000F03FDB
:043D8000690F0008BF
:043D8400450F0008DF
:103D88000024F400010000001000000010000020D2
:103D9800000000004C010020B40100201C0200209B
:103DA800000000000000000000000000000000000B
:103DB80000000000000000000000000000000000FB
:103DC80000000000000000000000000000000000EB
:0C3DD800000000000000000000000000DF
:0400000508002D01C1
:00000001FF
