:020000040800F2
:1000000000500020DD1B0008090500080B05000852
:100010000D0500080F05000811050008000000008C
:1000200000000000000000000000000013050008B0
:100030001505000800000000170500081905000854
:10004000251C0008251C0008251C0008251C00088C
:10005000251C0008251C0008251C0008251C00087C
:10006000251C0008251C0008251C0008251C00086C
:10007000251C0008251C0008251C0008251C00085C
:10008000251C0008251C0008251C0008251C00084C
:10009000251C0008251C0008251C0008251C00083C
:1000A000251C0008251C0008251C0008251C00082C
:1000B000251C0008251C0008251C0008251C00081C
:1000C000251C0008251C0008251C0008251C00080C
:1000D000251C0008251C0008251C0008251C0008FC
:1000E00021050008251C0008251C00080000000050
:1000F0000000000000000000000000000000000000
:0C01000000000000000000005FF808F1A3
:10010C0010B5054C237833B9044B13B10448AFF345
:10011C0000800123237010BD0C00002000000000A3
:10012C00801C000808B5034B1BB103490348AFF30F
:10013C00008008BD0000000010000020801C00089A
:10014C0000B585B000684FF0FF3302930123019393
:10015C0000920A46EE2100F0F9FF05B05DF804FBB1
:10016C0010B584B000684FF0FF34029401930092F4
:10017C0001230A46EE2100F0E9FF04B010BD10B5D2
:10018C0086B00C4616236A46AA21FFF7E9FF002326
:10019C000EE05A0006A901EB430111F818CC1932F4
:1001AC006A4412F8182C42EA0C2224F8132001336A
:1001BC000A2BEEDD06B010BD00B585B000684FF01F
:1001CC00FF3302930123019300920A46EE2100F0C3
:1001DC000BFF05B05DF804FB00B583B08DF807107C
:1001EC000DF10702F421FFF7E7FF03B05DF804FB04
:1001FC0010B582B004460160027100238360C360B5
:10020C000DF10702D021FFF79BFF9DF80730552B0E
:10021C0002D0FF2002B010BD21792046FFF7DCFF91
:10022C0004F110012046FFF7AAFFF3E730B589B0BF
:10023C0000240494059406940794254B9A6942F083
:10024C0010029A619A6902F010020092009A9A695F
:10025C0042F020029A619A6902F020020192019AFE
:10026C009A6942F004029A619A6902F004020292BD
:10027C00029A9A6942F008029A619B6903F008039A
:10028C000393039B134D22462021284600F02EFB9E
:10029C004FF400530493104B0593069404A90F4894
:1002AC0000F016FA202304930123059306940223ED
:1002BC00079304A9284600F00BFA22462146282071
:1002CC0000F0D4F9282000F0E1F909B030BD00BFEE
:1002DC000010024000080140000011100010014005
:1002EC0072B6FEE708B50A480A4B03604FF4E133D7
:1002FC00436000238360C36003610C22426183610D
:10030C00C36101F035FC00B908BDFFF7E9FF00BF80
:10031C00280000200044004008B50A480A4B03603E
:10032C000A4B436000238360C3604FF48042026138
:10033C0043618361C361036200F078FD00B908BDBD
:10034C00FFF7CEFF7000002000540040A086010093
:10035C0000B591B02822002106A801F05EFC002314
:10036C0001930293039304930593022306930122B2
:10037C000A9210220B920D934FF460130F9306A860
:10038C0001F09EF880B90F23019302210291002302
:10039C0003934FF480620492059301A801F0C2FA12
:1003AC0020B911B05DF804FBFFF79AFFFFF798FF37
:1003BC0000B58BB000F0DCF8FFF7CAFFFFF736FF93
:1003CC00FFF790FFFFF7A8FF2E2204496846FFF7BE
:1003DC000FFF0A2000F0F0F8FEE700BF70000020CD
:1003EC0082B00E4B9A6942F001029A619A6902F04E
:1003FC0001020092009ADA6942F08052DA61DB69FC
:10040C0003F080530193019B054A536823F0E0638A
:10041C0043F00073536002B0704700BF00100240FD
:10042C000000014010B586B000230293039304939F
:10043C0005930268154B9A4201D006B010BD144CBE
:10044C00A36943F00803A361A36903F008030093B5
:10045C00009B4FF4407302931223039303230593E1
:10046C0002A90C4800F034F90B4A536843F0E063DE
:10047C0043F002035360E36943F40013E361E3695F
:10048C0003F400130193019BD7E700BF0054004015
:10049C0000100240000C01400000014000B587B084
:1004AC00002302930393049305930268114B9A4221
:1004BC0002D007B05DF804FB03F5E633DA6942F4C9
:1004CC000032DA61DA6902F400320092009A9A6919
:1004DC0042F004029A619B6903F004030193019BAF
:1004EC000C23029302230393059302A9024800F004
:1004FC00EFF8DEE70044004000080140FEE7FEE7AD
:10050C00FEE7FEE7FEE770477047704708B500F05E
:10051C0041F808BD08B54FF4005000F0EFF908BDE4
:10052C007047000010B504460E4B1A784FF47A73DE
:10053C00B3FBF2F30C4A1068B0FBF3F000F0B4F824
:10054C0068B90F2C01D901200AE0002221464FF096
:10055C00FF3000F08BF8054B1C60002000E0012000
:10056C0010BD00BF04000020000000200800002087
:10057C0008B5074A136843F010031360032000F01A
:10058C0063F80020FFF7CEFFFFF72AFF002008BD1D
:10059C0000200240034A1168034B1B780B44136084
:1005AC00704700BFC400002004000020014B1868F5
:1005BC00704700BFC400002038B50446FFF7F6FFB3
:1005CC000546B4F1FF3F02D0044B1B781C44FFF7E7
:1005DC00EDFF401BA042FAD338BD00BF0400002041
:1005EC00002808DB0901C9B200F1604000F5614048
:1005FC0080F80013704700F00F000901C9B2014BDD
:10060C001954704714ED00E000B500F00700C0F17C
:10061C00070CBCF1040F28BF4FF0040C031D062B74
:10062C000FD9C31E4FF0FF3E0EFA0CF021EA000169
:10063C0099400EFA03FE22EA0E0241EA02005DF82E
:10064C0004FB0023EEE70000074AD36823F4E063C1
:10065C001B041B0C000200F4E060034343F0BF6377
:10066C0043F40033D360704700ED00E010B504464E
:10067C00054BD868C0F30220FFF7C6FF01462046A1
:10068C00FFF7AEFF10BD00BF00ED00E0002807DB58
:10069C0000F01F02400901239340024A42F8203027
:1006AC00704700BF00E100E00138B0F1807F0BD251
:1006BC004FF0E0235861054AF02182F82310002006
:1006CC00986107221A6170470120704700ED00E025
:1006DC0070B582B00024A446A1E07E4DAB4214D08C
:1006EC000CD8A5F58015AB420FD005F57025AB42A3
:1006FC000BD0A5F58015AB4210D106E0764DAB4280
:10070C0003D005F58035AB4208D18B68002B50D057
:10071C00012B49D04261082400E0CC68BEF1FF0FE8
:10072C0049D806464FEA8C0233680F25954023EAD8
:10073C00050304FA02F2134333604B6813F0805F35
:10074C006BD0664B9A6942F001029A619B6903F087
:10075C0001030193019B4FEA9C02951C604B53F8DB
:10076C0025600CF00305AD000F23AB4026EA030611
:10077C005C4B984226D003F58063984200F08C8045
:10078C0003F58063984200F0898003F580639842FA
:10079C0016D0042317E0CC680434BFE7CC680834C7
:1007AC00BCE7CC680C34B9E702610824B6E7002436
:1007BC00B4E70424B2E7061DACF108029200B3E7DB
:1007CC00032300E00023AB4033430232444D45F891
:1007DC0022304B6813F4801F62D0434A936843EA7B
:1007EC000E0393604B6813F4001F5FD03E4AD3682E
:1007FC0043EA0E03D3604B6813F4003F5CD03A4AD3
:10080C00536843EA0E0353604B6813F4803F59D08E
:10081C00354A136843EA0E0313600CF1010C0B68A4
:10082C0033FA0CF254D0012202FA0CF203EA020E53
:10083C0032EA0303F1D14B68122B3FF64EAF122B69
:10084C003FF66CAF01A555F823F000BF1707000861
:10085C0027070008A9070008BB070008290700089C
:10086C00290700082907000829070008290700089C
:10087C00290700082907000829070008290700088C
:10088C00290700082907000829070008290700087C
:10089C00A3070008AF070008012394E7022392E79F
:1008AC00114A936823EA0E0393609BE70E4AD368C0
:1008BC0023EA0E03D3609EE70B4A536823EA0E0328
:1008CC005360A1E7084A136823EA0E031360A4E7F8
:1008DC0002B070BD00002210000031100010024068
:1008EC000000014000080140000401400AB1016110
:1008FC0070470904016170477047000008B5054B4B
:10090C005B69034200D108BD024B5861FFF7F4FF4D
:10091C00F9E700BF0004014003685A6912F4806FC4
:10092C0001D1002070476FF480625A610023036389
:10093C00202280F83D2080F83E30026C42F0040208
:10094C00026480F83C30012070472DE9F0410646E6
:10095C000C46174698463BE0FFF728FE069BC01A4C
:10096C00404502D8B8F1000F32D1012D18D03368B0
:10097C009B6924EA03039BB2B3FA83F35B099F429E
:10098C0026D100233363202286F83D2086F83E30A2
:10099C00326C42F02002326486F83C30012027E0B1
:1009AC0033685B6924EA03039BB2B3FA83F35B09F4
:1009BC00E5E733685B6924EA030C1FFA8CFCBCFA8C
:1009CC008CFC4FEA5C1C674511D1B8F1FF3FC3D1D9
:1009DC00C4F30745012DECD033689B6924EA030C62
:1009EC001FFA8CFCBCFA8CFC4FEA5C1CEBE7002079
:1009FC00BDE8F0812DE9F84305460E469046994630
:100A0C0053E01A6842F400721A602B686FF480622B
:100A1C005A6100232B63202285F83D2085F83E3057
:100A2C002A6C42F004022A6485F83C3001204AE02A
:100A3C00FFF7BCFDA0EB0900404502D8B8F1000F50
:100A4C0033D1012F17D02B689B6926EA03039BB285
:100A5C00003B18BF012343B300232B63202285F8EE
:100A6C003D2085F83E302A6C42F020022A6485F83D
:100A7C003C30012027E02B685B6926EA03039BB21C
:100A8C00003B18BF0123E6E72B689C6926EA0404A7
:100A9C00A4B2003C18BF0124A4B12B685A6912F40B
:100AAC00806FAED1B8F1FF3FC2D1C6F30747012F1B
:100ABC00EAD12B685C6926EA0404A4B2003C18BF96
:100ACC000124E9E70020BDE8F88370B504460D4623
:100ADC00164623685B6913F0800F21D12046FFF77F
:100AEC001BFFF8B9B5F1FF3FF3D0FFF75FFD801B9B
:100AFC00A84201D8002DECD123685B6913F0800F5C
:100B0C00E7D100232363202284F83D2084F83E3073
:100B1C00226C42F02002226484F83C30012000E078
:100B2C00002070BD0120FCE72DE9F04385B00446A0
:100B3C000D4691461F46DDF830800D9E03681968FE
:100B4C0041F4807119600096434600224FF0011168
:100B5C00FFF7FBFE60B9236805F0FE051D61334607
:100B6C00424626492046FFF745FF68B1012008E0C0
:100B7C0023681B6813F4807F02D04FF40073236446
:100B8C00032005B0BDE8F0830023039323685A6962
:100B9C0003929B690393039B324641462046FFF721
:100BAC0094FF30B9012F0FD123685FFA89F61E61CB
:100BBC00E7E7236C042B01D00120E2E722681368DD
:100BCC0043F400731360F7E723684FEA19221A61A4
:100BDC00324641462046FFF778FF20B923685FFA7A
:100BEC0089F61E61CDE7236C042B01D00120C8E7E8
:100BFC002268136843F400731360F7E702000100E6
:100C0C002DE9F04784B004460D46164699460C9FD4
:100C1C00DDF834800268136843F480631360036862
:100C2C00196841F480711960CDF800803B460022B0
:100C3C004FF00111FFF789FE70B95FFA85FA23684E
:100C4C0005F0FE051D6143463A4641492046FFF733
:100C5C00D1FE68B1012008E023681B6813F4807F83
:100C6C0002D04FF400732364032004B0BDE8F08776
:100C7C000023039323685A6903929B690393039B94
:100C8C00424639462046FFF720FF80B9B9F1010FE3
:100C9C0018D12368F6B21E61424639462046FFF74A
:100CAC0014FF68B3236C042B24D00120DDE7236CE4
:100CBC00042B01D00120D8E72268136843F4007399
:100CCC001360F7E72368320A1A6142463946204618
:100CDC00FFF7FBFE18B92368F6B21E61DCE7236C44
:100CEC00042B01D00120C0E72268136843F4007381
:100CFC001360F7E72268136843F400731360D4E7BA
:100D0C002268136843F480731360CDF800803B466F
:100D1C0000224FF001112046FFF717FE68B9226838
:100D2C004AF00103136143463A4609492046FFF74E
:100D3C0061FE002899D0012097E723681B6813F403
:100D4C00807F02D04FF40073236403208DE700BF33
:100D5C000200010070B504460D46164623685B6917
:100D6C0013F0040F21D12046FFF7D6FDF8B9B5F1E9
:100D7C00FF3FF3D0FFF71AFC801BA84201D8002DCF
:100D8C00ECD123685B6913F0040FE7D100232363D4
:100D9C00202284F83D2084F83E30226C42F0200260
:100DAC00226484F83C30012000E0002070BD01205A
:100DBC00FCE770B504460D46164614E06FF01002C1
:100DCC005A6100232363202284F83D2084F83E30AE
:100DDC00226C226484F83C30012025E023685B6996
:100DEC0013F0400F10D02368586910F0400F1AD13F
:100DFC00586910F0100FE1D1FFF7D8FB801BA84207
:100E0C00ECD8002DEFD1E9E700232363202284F8EE
:100E1C003D2084F83E30226C42F02002226484F89B
:100E2C003C30012000E0002070BD0000002800F0E4
:100E3C00CC8070B5044690F83D30002B77D024233D
:100E4C0084F83D302268136823F001031360226894
:100E5C00136843F4004313602268136823F40043BF
:100E6C00136000F01BFE62685A4B9A4264D85A4BCE
:100E7C0098428CBF00230123002B40F0A8805749D7
:100E8C00A1FB00318B0C25686A6822F03F0242EA14
:100E9C0091426A6021680A6A22F03F0266684D4DF1
:100EAC00AE424FD8013313430B622168CA6922F456
:100EBC004F4222F0FF026568464B9D424CD8431EC0
:100ECC006D00B3FBF5F3013340F6FC70034278D0B0
:100EDC00C3F30B031A43CA6121680B6823F0C003E8
:100EEC00E269206A024313430B6021688B6823F488
:100EFC00034323F0FF032269E068024313438B6032
:100F0C002168CB6823F0FF036269A0690243134395
:100F1C00CB602268136843F0010313600020206447
:100F2C00202384F83D30206384F83E0070BD80F8A7
:100F3C003C30FFF777FA82E7294B98428CBF0023AD
:100F4C00012399E74FF4967505FB03F3254DA5FB9B
:100F5C0003539B090133A6E7A668BEB9431E05EBF4
:100F6C00450CB3FBFCF30133C3F30B03B3FA83F36C
:100F7C005B0943BBC6B9431E05EB4505B3FBF5F353
:100F8C000133C3F30B0343F40043A3E7431E05EB08
:100F9C00850C0CEB8C0CB3FBFCF30133C3F30B0390
:100FAC00B3FA83F35B09E4E7431E05EB850505EB18
:100FBC008505B3FBF5F30133C3F30B0343F4404353
:100FCC0088E7042386E7012384E70120704701208A
:100FDC00ACE700BFA08601007F841E0083DE1B43AC
:100FEC00FF083D00D34D62102DE9F04383B0044659
:100FFC000F46904699460C9EFFF7D8FA054694F892
:10100C003D00C0B2202803D0022003B0BDE8F0831D
:10101C000095192301224B492046FFF796FC002826
:10102C0040F0898094F83C30012B00F0868001233D
:10103C0084F83C3023681A6812F0010F03D11A6847
:10104C0042F001021A602268136823F400631360F3
:10105C00212384F83D30402384F83E300023236460
:10106C000A9B6362BDF82C306385638D2385364BF8
:10107C00E362019500964B46424639462046FFF7FF
:10108C0053FD00285BD1238D002B35D02A463146E9
:10109C002046FFF71AFD20BB626A236812781A619A
:1010AC00626A531C6362218D013989B22185638D7B
:1010BC009BB2013B9BB263852368586910F0040F07
:1010CC00E1D00029DFD052781A61636A0133636280
:1010DC00238D013B2385638D9BB2013B9BB26385C2
:1010EC00D1E7236C042B01D001208EE72268136812
:1010FC0043F400731360F7E72A4631462046FFF7A6
:10110C0029FE50B1236C042B01D001207DE722680D
:10111C00136843F400731360F7E72268136843F411
:10112C0000731360202384F83D30002384F83E3094
:10113C0084F83C3069E7022067E7022065E701206C
:10114C0063E700BF020010000000FFFF2DE9F04331
:10115C0089B004460F4690469946129E0023079389
:10116C00FFF724FA054694F83D00C0B2202804D0BD
:10117C000227384609B0BDE8F083009519230122F7
:10118C0081492046FFF7E1FB002840F0728194F87A
:10119C003C30012B00F06F81012384F83C30236834
:1011AC001A6812F0010F03D11A6842F001021A609A
:1011BC002268136823F400631360222384F83D3003
:1011CC00402384F83E3000232364109B6362BDF8F7
:1011DC0044306385638D23856C4BE36201950096E7
:1011EC004B46424639462046FFF70AFD0746002883
:1011FC0040F04381238D5BB9039323685A690392B2
:10120C009A690392039A1A6842F400721A60EDE02C
:10121C00012B0FD0022B21D02268136843F480637A
:10122C0013600023069323685A6906929B69069300
:10123C00069BDBE02268136823F48063136072B6AC
:10124C000023049323685A6904929A690492049ABD
:10125C001A6842F400721A6062B6C7E0226813681A
:10126C0043F40063136072B60023059323685A6934
:10127C0005929A690592059A1A6822F480621A609E
:10128C0062B6B3E02A4631462046FFF792FD0028AD
:10129C0040F0F58023681A69636A1A70636A013337
:1012AC006362238D013B2385638D9BB2013B9BB213
:1012BC0063859BE000953346002235492046FFF7B5
:1012CC0044FB002840F0DF802268136823F480631D
:1012DC00136072B623681A69636A1A70636A013301
:1012EC006362238D013B2385638D9BB2013B9BB2D3
:1012FC006385284B1B68DB08274AA2FB03231B0AC8
:10130C0003EB8303C3EBC3030793079B013B0793D7
:10131C00079B002B28D023685A6912F0040FF4D0D5
:10132C001A6842F400721A6023681A69636A1A70A8
:10133C00636A01336362238D013B2385638D9BB20A
:10134C00013B9BB2638562B623681A69636A1A70A3
:10135C00636A01336362238D013B2385638D9BB2EA
:10136C00013B9BB2638541E02363202284F83D203E
:10137C0084F83E30226C42F02002226462B684F87B
:10138C003C300127F5E600BF020010000000FFFF13
:10139C00040001000000002089B5F8142A463146EB
:1013AC002046FFF706FD00286FD123681A69636A8F
:1013BC001A70626A531C6362238D013B2385638D13
:1013CC009BB2013B9BB263852368596911F0040FF2
:1013DC000CD01B695370636A01336362238D013B2C
:1013EC002385638D9BB2013B9BB26385238D002BC0
:1013FC0036D0032BD2D8012B3FF444AF022B7FF411
:10140C0059AF00953346002221492046FFF79DFA3B
:10141C00002836D172B62268136843F40073136047
:10142C0023681A69636A1A70636A01336362238DD5
:10143C00013B2385638D9BB2013B9BB2638562B6F6
:10144C0023681A69636A1A70636A01336362238DB5
:10145C00013B2385638D9BB2013B9BB26385C5E742
:10146C00202384F83D30002384F83E3084F83C304F
:10147C007FE602277DE602277BE6012779E6012736
:10148C0077E6012775E6012773E6012771E600BFB1
:10149C000400010082B0084B1B68084AA2FB03231E
:1014AC005B0A00FB03F3019300BF019B5A1E0192E0
:1014BC00002BF9D102B0704700000020D34D621010
:1014CC00002800F0F18170B582B00446036813F077
:1014DC00010F2CD0994B5B6803F00C03042B1DD02F
:1014EC00964B5B6803F00C03082B12D06368B3F5C2
:1014FC00803F41D0002B55D103F1804303F50433D9
:10150C001A6822F480321A601A6822F480221A6057
:10151C0037E08A4B5B6813F4803FE7D0874B1B683E
:10152C0013F4003F03D06368002B00F0BF812368E5
:10153C0013F0020F75D0814B5B6813F00C0F5FD06A
:10154C007E4B5B6803F00C03082B54D02369002BF3
:10155C0000F08A807A4B01221A60FFF727F80546C3
:10156C00764B1B6813F0020F75D1FFF71FF8401B69
:10157C000228F5D903209EE1704A136843F48033A6
:10158C001360636843B3FFF711F805466B4B1B6898
:10159C0013F4003FCBD1FFF709F8401B6428F5D9B1
:1015AC00032088E1B3F5A02F09D0644B1A6822F40C
:1015BC0080321A601A6822F480221A60E1E703F183
:1015CC008043A3F53C331A6842F480221A601A68EF
:1015DC0042F480321A60D4E7FEF7E8FF0546574B19
:1015EC001B6813F4003FA2D0FEF7E0FF401B6428F9
:1015FC00F5D903205FE1514B5B6813F4803FA5D113
:10160C004E4B1B6813F0020F03D02369012B40F0E3
:10161C004F814A4A136823F0F803616943EAC10316
:10162C001360236813F0080F33D0A369002B5CD030
:10163C00434B0122C3F88024FEF7B8FF05463F4B0D
:10164C005B6A13F0020F21D1FEF7B0FF401B02289A
:10165C00F5D903202FE1394A136823F0F8036169A7
:10166C0043EAC1031360DCE7354B00221A60FEF736
:10167C009DFF0546314B1B6813F0020FD1D0FEF7CE
:10168C0095FF401B0228F5D9032014E10120FFF738
:10169C0001FF236813F0040F00F09680274BDB69E1
:1016AC0013F0805F34D1254BDA6942F08052DA6155
:1016BC00DB6903F080530193019B0125214B1B68CF
:1016CC0013F4807F26D0E368012B3DD0002B53D13F
:1016DC0003F1804303F504331A6A22F001021A6203
:1016EC001A6A22F004021A6233E0154B0022C3F886
:1016FC008024FEF75BFF0546104B5B6A13F0020F6C
:10170C00C7D0FEF753FF401B0228F5D90320D2E0C7
:10171C000025D3E70B4A136843F480731360FEF77C
:10172C0045FF0646074B1B6813F4807FCBD1FEF7B1
:10173C003DFF801B6428F5D90320BCE0001002405B
:10174C0000004242007000405F4A136A43F00103FC
:10175C001362E36833B3FEF729FF06465A4B1B6A44
:10176C0013F0020F2FD1FEF721FF801B41F28833BB
:10177C009842F3D903209EE0052B09D0524B1A6AEC
:10178C0022F001021A621A6A22F004021A62E0E7DD
:10179C004D4B1A6A42F004021A621A6A42F00102B4
:1017AC001A62D6E7FEF702FF0646474B1B6A13F098
:1017BC00020F08D0FEF7FAFE801B41F288339842E4
:1017CC00F3D9032077E0E5B9E369002B72D03E4AE8
:1017DC00526802F00C02082A56D0022B17D03B4B51
:1017EC0000221A66FEF7E2FE0446374B1B6813F024
:1017FC00007F47D0FEF7DAFE001B0228F5D9032044
:10180C0059E0314AD36923F08053D361DCE72F4B85
:10181C0000221A66FEF7CAFE05462B4B1B6813F016
:10182C00007F06D0FEF7C2FE401B0228F5D903202C
:10183C0041E0236AB3F5803F1AD023494B6823F467
:10184C007413226A606A024313434B601F4B0122DC
:10185C001A66FEF7ABFE04461B4B1B6813F0007FA9
:10186C000ED1FEF7A3FE001B0228F5D9032022E0BF
:10187C00154A536823F40033A1680B435360DCE72B
:10188C00002018E0002016E0012B16D00E4B5B68F0
:10189C0003F48031226A914211D103F47013626A0D
:1018AC0093420ED1002006E001207047012002E097
:1018BC00012000E0002002B070BD0120FBE70120F8
:1018CC00F9E70120F7E700BF001002400000424298
:1018DC000F4B5B6803F00C02082A01D00D487047CF
:1018EC00C3F383420C49885C13F4803F0BD0084B44
:1018FC005B68C3F34043094AD35C064A02FB00F021
:10190C00B0FBF3F07047064B03FB00F0704700BFD1
:10191C000010024000127A00B41C0008B01C000831
:10192C0000093D00002800F0A08070B50D4604466B
:10193C00524B1B6803F007038B420BD24F4A1368C0
:10194C0023F007030B431360136803F007038B4268
:10195C0040F08D80236813F0020F17D013F0040FA2
:10196C0004D0474A536843F4E0635360236813F090
:10197C00080F04D0424A536843F460535360404A02
:10198C00536823F0F003A1680B435360236813F0F2
:10199C00010F31D06368012B20D0022B25D0384A9F
:1019AC00126812F0020F64D035494A6822F0030223
:1019BC0013434B60FEF7FAFD0646314B5B6803F0B0
:1019CC000C036268B3EB820F16D0FEF7EFFD801BA1
:1019DC0041F288339842F0D9032045E0284A126836
:1019EC0012F4003FE0D101203EE0254A126812F0CB
:1019FC00007FD9D1012037E0204B1B6803F007038F
:101A0C00AB420AD91D4A136823F007032B4313601A
:101A1C00136803F00703AB422DD1236813F0040FB6
:101A2C0006D0174A536823F4E063E1680B43536014
:101A3C00236813F0080F07D0114A536823F460533E
:101A4C00216943EAC1035360FFF742FF0C4B5B680B
:101A5C00C3F303130B4AD35CD8400B4B18600B4BEE
:101A6C001868FEF75FFD002070BD01207047012053
:101A7C00FAE70120F8E70120F6E700BF002002405A
:101A8C0000100240A01C00080000002008000020EC
:101A9C00014B1868704700BF0000002008B5FFF725
:101AAC00F7FF044B5B68C3F30223034AD35CD840B3
:101ABC0008BD00BF00100240981C000808B5FFF7D5
:101ACC00E7FF044B5B68C3F3C223034AD35CD840E3
:101ADC0008BD00BF00100240981C000810B5044659
:101AEC000268136923F44053C1680B431361836884
:101AFC000269134342691A430168CB6823F4B0535B
:101B0C0023F00C031343CB600268536923F4407336
:101B1C0081690B4353610268134B9A4220D0FFF743
:101B2C00BDFF024602EB820202EB820263689B005D
:101B3C00B2FBF3F20D48A0FB02314909642303FB0D
:101B4C0011231B013233A0FB03035B0903F0F002EA
:101B5C0002EB011203F00F03216813448B6010BDDC
:101B6C00FFF7ACFF0246DDE7003801401F85EB5163
:101B7C0060B310B5044690F8413013B3242384F8B5
:101B8C0041302268D36823F40053D3602046FFF71A
:101B9C00A5FF2268136923F49043136122685369EB
:101BAC0023F02A0353612268D36843F40053D360B3
:101BBC0000206064202384F8413084F84230606354
:101BCC0010BD80F84030FEF769FCD7E70120704764
:101BDC00FEF7A6FC0B480C490C4A002302E0D45833
:101BEC00C4500433C4188C42F9D3094A094C00235D
:101BFC0001E013600432A242FBD300F017F8FEF7A9
:101C0C00D7FB7047000000200C000020CC1C000803
:101C1C000C000020C8000020FEE70346024493425B
:101C2C0000D1704703F8011BF9E7000070B50026DE
:101C3C000C4D0D4C641BA410A64209D100F01AF8EF
:101C4C0000260A4D0A4C641BA410A64205D170BD97
:101C5C0055F8043B98470136EEE755F8043B984796
:101C6C000136F2E7C41C0008C41C0008C41C0008A0
:101C7C00C81C0008F8B500BFF8BC08BC9E467047ED
:0C1C8C00F8B500BFF8BC08BC9E467047CD
:101C98000000000001020304000000000000000032
:101CA80001020304060708090102000002030405F3
:0C1CB800060708090A0B0C0D0E0F101097
:041CC40031010008E2
:041CC8000D01000802
:0C1CCC000024F4000100000010000000E3
:0400000508001BDDF7
:00000001FF
